{
  "_format": "hh-sol-artifact-1",
  "contractName": "FeeReceiver",
  "sourceName": "contracts/FeeRecipient.sol",
  "abi": [
    {
      "inputs": [],
      "stateMutability": "nonpayable",
      "type": "constructor"
    },
    {
      "inputs": [
        {
          "internalType": "address",
          "name": "owner",
          "type": "address"
        }
      ],
      "name": "OwnableInvalidOwner",
      "type": "error"
    },
    {
      "inputs": [
        {
          "internalType": "address",
          "name": "account",
          "type": "address"
        }
      ],
      "name": "OwnableUnauthorizedAccount",
      "type": "error"
    },
    {
      "anonymous": false,
      "inputs": [
        {
          "indexed": true,
          "internalType": "address",
          "name": "previousOwner",
          "type": "address"
        },
        {
          "indexed": true,
          "internalType": "address",
          "name": "newOwner",
          "type": "address"
        }
      ],
      "name": "OwnershipTransferred",
      "type": "event"
    },
    {
      "anonymous": false,
      "inputs": [
        {
          "indexed": true,
          "internalType": "address",
          "name": "to",
          "type": "address"
        },
        {
          "indexed": true,
          "internalType": "uint256",
          "name": "amount",
          "type": "uint256"
        }
      ],
      "name": "SendEvent",
      "type": "event"
    },
    {
      "stateMutability": "payable",
      "type": "fallback"
    },
    {
      "inputs": [],
      "name": "getBalance",
      "outputs": [
        {
          "internalType": "uint256",
          "name": "",
          "type": "uint256"
        }
      ],
      "stateMutability": "view",
      "type": "function"
    },
    {
      "inputs": [],
      "name": "owner",
      "outputs": [
        {
          "internalType": "address",
          "name": "",
          "type": "address"
        }
      ],
      "stateMutability": "view",
      "type": "function"
    },
    {
      "inputs": [],
      "name": "renounceOwnership",
      "outputs": [],
      "stateMutability": "nonpayable",
      "type": "function"
    },
    {
      "inputs": [
        {
          "internalType": "address payable",
          "name": "_to",
          "type": "address"
        },
        {
          "internalType": "uint256",
          "name": "_amount",
          "type": "uint256"
        }
      ],
      "name": "sendEth",
      "outputs": [],
      "stateMutability": "nonpayable",
      "type": "function"
    },
    {
      "inputs": [
        {
          "internalType": "address",
          "name": "newOwner",
          "type": "address"
        }
      ],
      "name": "transferOwnership",
      "outputs": [],
      "stateMutability": "nonpayable",
      "type": "function"
    },
    {
      "stateMutability": "payable",
      "type": "receive"
    }
  ],
  "bytecode": "0x608060405234801561001057600080fd5b5033600073ffffffffffffffffffffffffffffffffffffffff168173ffffffffffffffffffffffffffffffffffffffff16036100845760006040517f1e4fbdf700000000000000000000000000000000000000000000000000000000815260040161007b919061019e565b60405180910390fd5b6100938161009960201b60201c565b506101b9565b60008060009054906101000a900473ffffffffffffffffffffffffffffffffffffffff169050816000806101000a81548173ffffffffffffffffffffffffffffffffffffffff021916908373ffffffffffffffffffffffffffffffffffffffff1602179055508173ffffffffffffffffffffffffffffffffffffffff168173ffffffffffffffffffffffffffffffffffffffff167f8be0079c531659141344cd1fd0a4f28419497f9722a3daafe3b4186f6b6457e060405160405180910390a35050565b600073ffffffffffffffffffffffffffffffffffffffff82169050919050565b60006101888261015d565b9050919050565b6101988161017d565b82525050565b60006020820190506101b3600083018461018f565b92915050565b610930806101c86000396000f3fe60806040526004361061004e5760003560e01c806312065fe01461005757806349dcbc5e14610082578063715018a6146100ab5780638da5cb5b146100c2578063f2fde38b146100ed57610055565b3661005557005b005b34801561006357600080fd5b5061006c610116565b6040516100799190610574565b60405180910390f35b34801561008e57600080fd5b506100a960048036038101906100a4919061061e565b61011e565b005b3480156100b757600080fd5b506100c0610345565b005b3480156100ce57600080fd5b506100d7610359565b6040516100e4919061067f565b60405180910390f35b3480156100f957600080fd5b50610114600480360381019061010f91906106c6565b610382565b005b600047905090565b610126610408565b61012e610359565b73ffffffffffffffffffffffffffffffffffffffff163373ffffffffffffffffffffffffffffffffffffffff161461019b576040517f08c379a000000000000000000000000000000000000000000000000000000000815260040161019290610750565b60405180910390fd5b600073ffffffffffffffffffffffffffffffffffffffff168273ffffffffffffffffffffffffffffffffffffffff160361020a576040517f08c379a0000000000000000000000000000000000000000000000000000000008152600401610201906107bc565b60405180910390fd5b8047101561024d576040517f08c379a000000000000000000000000000000000000000000000000000000000815260040161024490610828565b60405180910390fd5b6000808373ffffffffffffffffffffffffffffffffffffffff168360405161027490610879565b60006040518083038185875af1925050503d80600081146102b1576040519150601f19603f3d011682016040523d82523d6000602084013e6102b6565b606091505b5091509150816102fb576040517f08c379a00000000000000000000000000000000000000000000000000000000081526004016102f2906108da565b60405180910390fd5b828473ffffffffffffffffffffffffffffffffffffffff167f903aa15386297784838ae52bcdbd3d405534627c5f214b5e500f5c99660bc57d60405160405180910390a350505050565b61034d610408565b610357600061048f565b565b60008060009054906101000a900473ffffffffffffffffffffffffffffffffffffffff16905090565b61038a610408565b600073ffffffffffffffffffffffffffffffffffffffff168173ffffffffffffffffffffffffffffffffffffffff16036103fc5760006040517f1e4fbdf70000000000000000000000000000000000000000000000000000000081526004016103f3919061067f565b60405180910390fd5b6104058161048f565b50565b610410610553565b73ffffffffffffffffffffffffffffffffffffffff1661042e610359565b73ffffffffffffffffffffffffffffffffffffffff161461048d57610451610553565b6040517f118cdaa7000000000000000000000000000000000000000000000000000000008152600401610484919061067f565b60405180910390fd5b565b60008060009054906101000a900473ffffffffffffffffffffffffffffffffffffffff169050816000806101000a81548173ffffffffffffffffffffffffffffffffffffffff021916908373ffffffffffffffffffffffffffffffffffffffff1602179055508173ffffffffffffffffffffffffffffffffffffffff168173ffffffffffffffffffffffffffffffffffffffff167f8be0079c531659141344cd1fd0a4f28419497f9722a3daafe3b4186f6b6457e060405160405180910390a35050565b600033905090565b6000819050919050565b61056e8161055b565b82525050565b60006020820190506105896000830184610565565b92915050565b600080fd5b600073ffffffffffffffffffffffffffffffffffffffff82169050919050565b60006105bf82610594565b9050919050565b6105cf816105b4565b81146105da57600080fd5b50565b6000813590506105ec816105c6565b92915050565b6105fb8161055b565b811461060657600080fd5b50565b600081359050610618816105f2565b92915050565b600080604083850312156106355761063461058f565b5b6000610643858286016105dd565b925050602061065485828601610609565b9150509250929050565b600061066982610594565b9050919050565b6106798161065e565b82525050565b60006020820190506106946000830184610670565b92915050565b6106a38161065e565b81146106ae57600080fd5b50565b6000813590506106c08161069a565b92915050565b6000602082840312156106dc576106db61058f565b5b60006106ea848285016106b1565b91505092915050565b600082825260208201905092915050565b7f4f6e6c79206f776e65722063616e2073656e6420457468000000000000000000600082015250565b600061073a6017836106f3565b915061074582610704565b602082019050919050565b600060208201905081810360008301526107698161072d565b9050919050565b7f496e76616c696420726563697069656e74206164647265737300000000000000600082015250565b60006107a66019836106f3565b91506107b182610770565b602082019050919050565b600060208201905081810360008301526107d581610799565b9050919050565b7f496e73756666696369656e742062616c616e6365000000000000000000000000600082015250565b60006108126014836106f3565b915061081d826107dc565b602082019050919050565b6000602082019050818103600083015261084181610805565b9050919050565b600081905092915050565b50565b6000610863600083610848565b915061086e82610853565b600082019050919050565b600061088482610856565b9150819050919050565b7f4661696c656420746f2073656e64204574686572000000000000000000000000600082015250565b60006108c46014836106f3565b91506108cf8261088e565b602082019050919050565b600060208201905081810360008301526108f3816108b7565b905091905056fea264697066735822122082566e7f89cf71c2b4bf527fb72ce04ddaac2d4282d52c690013f138044805e364736f6c63430008180033",
  "linkReferences": {},
  "deployedLinkReferences": {}
}